{
  "_format": "hh-sol-artifact-1",
  "contractName": "BankToken",
  "sourceName": "contracts/BankToken.sol",
  "abi": [
    {
      "inputs": [],
      "stateMutability": "nonpayable",
      "type": "constructor"
    },
    {
      "inputs": [
        {
          "internalType": "address",
          "name": "target",
          "type": "address"
        }
      ],
      "name": "AddressEmptyCode",
      "type": "error"
    },
    {
      "inputs": [],
      "name": "ECDSAInvalidSignature",
      "type": "error"
    },
    {
      "inputs": [
        {
          "internalType": "uint256",
          "name": "length",
          "type": "uint256"
        }
      ],
      "name": "ECDSAInvalidSignatureLength",
      "type": "error"
    },
    {
      "inputs": [
        {
          "internalType": "bytes32",
          "name": "s",
          "type": "bytes32"
        }
      ],
      "name": "ECDSAInvalidSignatureS",
      "type": "error"
    },
    {
      "inputs": [
        {
          "internalType": "address",
          "name": "implementation",
          "type": "address"
        }
      ],
      "name": "ERC1967InvalidImplementation",
      "type": "error"
    },
    {
      "inputs": [],
      "name": "ERC1967NonPayable",
      "type": "error"
    },
    {
      "inputs": [
        {
          "internalType": "address",
          "name": "spender",
          "type": "address"
        },
        {
          "internalType": "uint256",
          "name": "allowance",
          "type": "uint256"
        },
        {
          "internalType": "uint256",
          "name": "needed",
          "type": "uint256"
        }
      ],
      "name": "ERC20InsufficientAllowance",
      "type": "error"
    },
    {
      "inputs": [
        {
          "internalType": "address",
          "name": "sender",
          "type": "address"
        },
        {
          "internalType": "uint256",
          "name": "balance",
          "type": "uint256"
        },
        {
          "internalType": "uint256",
          "name": "needed",
          "type": "uint256"
        }
      ],
      "name": "ERC20InsufficientBalance",
      "type": "error"
    },
    {
      "inputs": [
        {
          "internalType": "address",
          "name": "approver",
          "type": "address"
        }
      ],
      "name": "ERC20InvalidApprover",
      "type": "error"
    },
    {
      "inputs": [
        {
          "internalType": "address",
          "name": "receiver",
          "type": "address"
        }
      ],
      "name": "ERC20InvalidReceiver",
      "type": "error"
    },
    {
      "inputs": [
        {
          "internalType": "address",
          "name": "sender",
          "type": "address"
        }
      ],
      "name": "ERC20InvalidSender",
      "type": "error"
    },
    {
      "inputs": [
        {
          "internalType": "address",
          "name": "spender",
          "type": "address"
        }
      ],
      "name": "ERC20InvalidSpender",
      "type": "error"
    },
    {
      "inputs": [
        {
          "internalType": "uint256",
          "name": "deadline",
          "type": "uint256"
        }
      ],
      "name": "ERC2612ExpiredSignature",
      "type": "error"
    },
    {
      "inputs": [
        {
          "internalType": "address",
          "name": "signer",
          "type": "address"
        },
        {
          "internalType": "address",
          "name": "owner",
          "type": "address"
        }
      ],
      "name": "ERC2612InvalidSigner",
      "type": "error"
    },
    {
      "inputs": [],
      "name": "FailedCall",
      "type": "error"
    },
    {
      "inputs": [
        {
          "internalType": "address",
          "name": "account",
          "type": "address"
        },
        {
          "internalType": "uint256",
          "name": "currentNonce",
          "type": "uint256"
        }
      ],
      "name": "InvalidAccountNonce",
      "type": "error"
    },
    {
      "inputs": [],
      "name": "InvalidInitialization",
      "type": "error"
    },
    {
      "inputs": [],
      "name": "NotInitializing",
      "type": "error"
    },
    {
      "inputs": [
        {
          "internalType": "address",
          "name": "owner",
          "type": "address"
        }
      ],
      "name": "OwnableInvalidOwner",
      "type": "error"
    },
    {
      "inputs": [
        {
          "internalType": "address",
          "name": "account",
          "type": "address"
        }
      ],
      "name": "OwnableUnauthorizedAccount",
      "type": "error"
    },
    {
      "inputs": [],
      "name": "UUPSUnauthorizedCallContext",
      "type": "error"
    },
    {
      "inputs": [
        {
          "internalType": "bytes32",
          "name": "slot",
          "type": "bytes32"
        }
      ],
      "name": "UUPSUnsupportedProxiableUUID",
      "type": "error"
    },
    {
      "anonymous": false,
      "inputs": [
        {
          "indexed": true,
          "internalType": "address",
          "name": "owner",
          "type": "address"
        },
        {
          "indexed": true,
          "internalType": "address",
          "name": "spender",
          "type": "address"
        },
        {
          "indexed": false,
          "internalType": "uint256",
          "name": "value",
          "type": "uint256"
        }
      ],
      "name": "Approval",
      "type": "event"
    },
    {
      "anonymous": false,
      "inputs": [],
      "name": "EIP712DomainChanged",
      "type": "event"
    },
    {
      "anonymous": false,
      "inputs": [
        {
          "indexed": false,
          "internalType": "uint64",
          "name": "version",
          "type": "uint64"
        }
      ],
      "name": "Initialized",
      "type": "event"
    },
    {
      "anonymous": false,
      "inputs": [
        {
          "indexed": true,
          "internalType": "address",
          "name": "previousOwner",
          "type": "address"
        },
        {
          "indexed": true,
          "internalType": "address",
          "name": "newOwner",
          "type": "address"
        }
      ],
      "name": "OwnershipTransferred",
      "type": "event"
    },
    {
      "anonymous": false,
      "inputs": [
        {
          "indexed": true,
          "internalType": "address",
          "name": "from",
          "type": "address"
        },
        {
          "indexed": true,
          "internalType": "address",
          "name": "to",
          "type": "address"
        },
        {
          "indexed": false,
          "internalType": "uint256",
          "name": "value",
          "type": "uint256"
        }
      ],
      "name": "Transfer",
      "type": "event"
    },
    {
      "anonymous": false,
      "inputs": [
        {
          "indexed": true,
          "internalType": "address",
          "name": "implementation",
          "type": "address"
        }
      ],
      "name": "Upgraded",
      "type": "event"
    },
    {
      "stateMutability": "payable",
      "type": "fallback"
    },
    {
      "inputs": [],
      "name": "DOMAIN_SEPARATOR",
      "outputs": [
        {
          "internalType": "bytes32",
          "name": "",
          "type": "bytes32"
        }
      ],
      "stateMutability": "view",
      "type": "function"
    },
    {
      "inputs": [],
      "name": "UPGRADE_INTERFACE_VERSION",
      "outputs": [
        {
          "internalType": "string",
          "name": "",
          "type": "string"
        }
      ],
      "stateMutability": "view",
      "type": "function"
    },
    {
      "inputs": [
        {
          "internalType": "address",
          "name": "owner",
          "type": "address"
        },
        {
          "internalType": "address",
          "name": "spender",
          "type": "address"
        }
      ],
      "name": "allowance",
      "outputs": [
        {
          "internalType": "uint256",
          "name": "",
          "type": "uint256"
        }
      ],
      "stateMutability": "view",
      "type": "function"
    },
    {
      "inputs": [
        {
          "internalType": "address",
          "name": "spender",
          "type": "address"
        },
        {
          "internalType": "uint256",
          "name": "value",
          "type": "uint256"
        }
      ],
      "name": "approve",
      "outputs": [
        {
          "internalType": "bool",
          "name": "",
          "type": "bool"
        }
      ],
      "stateMutability": "nonpayable",
      "type": "function"
    },
    {
      "inputs": [
        {
          "internalType": "address",
          "name": "account",
          "type": "address"
        }
      ],
      "name": "balanceOf",
      "outputs": [
        {
          "internalType": "uint256",
          "name": "",
          "type": "uint256"
        }
      ],
      "stateMutability": "view",
      "type": "function"
    },
    {
      "inputs": [],
      "name": "decimals",
      "outputs": [
        {
          "internalType": "uint8",
          "name": "",
          "type": "uint8"
        }
      ],
      "stateMutability": "view",
      "type": "function"
    },
    {
      "inputs": [],
      "name": "eip712Domain",
      "outputs": [
        {
          "internalType": "bytes1",
          "name": "fields",
          "type": "bytes1"
        },
        {
          "internalType": "string",
          "name": "name",
          "type": "string"
        },
        {
          "internalType": "string",
          "name": "version",
          "type": "string"
        },
        {
          "internalType": "uint256",
          "name": "chainId",
          "type": "uint256"
        },
        {
          "internalType": "address",
          "name": "verifyingContract",
          "type": "address"
        },
        {
          "internalType": "bytes32",
          "name": "salt",
          "type": "bytes32"
        },
        {
          "internalType": "uint256[]",
          "name": "extensions",
          "type": "uint256[]"
        }
      ],
      "stateMutability": "view",
      "type": "function"
    },
    {
      "inputs": [
        {
          "internalType": "address",
          "name": "initialOwner",
          "type": "address"
        },
        {
          "internalType": "uint256",
          "name": "amount",
          "type": "uint256"
        }
      ],
      "name": "initialize",
      "outputs": [],
      "stateMutability": "nonpayable",
      "type": "function"
    },
    {
      "inputs": [],
      "name": "name",
      "outputs": [
        {
          "internalType": "string",
          "name": "",
          "type": "string"
        }
      ],
      "stateMutability": "view",
      "type": "function"
    },
    {
      "inputs": [
        {
          "internalType": "address",
          "name": "owner",
          "type": "address"
        }
      ],
      "name": "nonces",
      "outputs": [
        {
          "internalType": "uint256",
          "name": "",
          "type": "uint256"
        }
      ],
      "stateMutability": "view",
      "type": "function"
    },
    {
      "inputs": [],
      "name": "owner",
      "outputs": [
        {
          "internalType": "address",
          "name": "",
          "type": "address"
        }
      ],
      "stateMutability": "view",
      "type": "function"
    },
    {
      "inputs": [
        {
          "internalType": "address",
          "name": "owner",
          "type": "address"
        },
        {
          "internalType": "address",
          "name": "spender",
          "type": "address"
        },
        {
          "internalType": "uint256",
          "name": "value",
          "type": "uint256"
        },
        {
          "internalType": "uint256",
          "name": "deadline",
          "type": "uint256"
        },
        {
          "internalType": "uint8",
          "name": "v",
          "type": "uint8"
        },
        {
          "internalType": "bytes32",
          "name": "r",
          "type": "bytes32"
        },
        {
          "internalType": "bytes32",
          "name": "s",
          "type": "bytes32"
        }
      ],
      "name": "permit",
      "outputs": [],
      "stateMutability": "nonpayable",
      "type": "function"
    },
    {
      "inputs": [],
      "name": "proxiableUUID",
      "outputs": [
        {
          "internalType": "bytes32",
          "name": "",
          "type": "bytes32"
        }
      ],
      "stateMutability": "view",
      "type": "function"
    },
    {
      "inputs": [],
      "name": "renounceOwnership",
      "outputs": [],
      "stateMutability": "nonpayable",
      "type": "function"
    },
    {
      "inputs": [],
      "name": "symbol",
      "outputs": [
        {
          "internalType": "string",
          "name": "",
          "type": "string"
        }
      ],
      "stateMutability": "view",
      "type": "function"
    },
    {
      "inputs": [],
      "name": "totalSupply",
      "outputs": [
        {
          "internalType": "uint256",
          "name": "",
          "type": "uint256"
        }
      ],
      "stateMutability": "view",
      "type": "function"
    },
    {
      "inputs": [
        {
          "internalType": "address",
          "name": "to",
          "type": "address"
        },
        {
          "internalType": "uint256",
          "name": "value",
          "type": "uint256"
        }
      ],
      "name": "transfer",
      "outputs": [
        {
          "internalType": "bool",
          "name": "",
          "type": "bool"
        }
      ],
      "stateMutability": "nonpayable",
      "type": "function"
    },
    {
      "inputs": [
        {
          "internalType": "address",
          "name": "from",
          "type": "address"
        },
        {
          "internalType": "address",
          "name": "to",
          "type": "address"
        },
        {
          "internalType": "uint256",
          "name": "value",
          "type": "uint256"
        }
      ],
      "name": "transferFrom",
      "outputs": [
        {
          "internalType": "bool",
          "name": "",
          "type": "bool"
        }
      ],
      "stateMutability": "nonpayable",
      "type": "function"
    },
    {
      "inputs": [
        {
          "internalType": "address",
          "name": "newOwner",
          "type": "address"
        }
      ],
      "name": "transferOwnership",
      "outputs": [],
      "stateMutability": "nonpayable",
      "type": "function"
    },
    {
      "inputs": [
        {
          "internalType": "address",
          "name": "newImplementation",
          "type": "address"
        },
        {
          "internalType": "bytes",
          "name": "data",
          "type": "bytes"
        }
      ],
      "name": "upgradeToAndCall",
      "outputs": [],
      "stateMutability": "payable",
      "type": "function"
    },
    {
      "inputs": [],
      "name": "version",
      "outputs": [
        {
          "internalType": "string",
          "name": "",
          "type": "string"
        }
      ],
      "stateMutability": "pure",
      "type": "function"
    },
    {
      "stateMutability": "payable",
      "type": "receive"
    }
  ],
  "bytecode": "0x60a06040523060805234801561001457600080fd5b5061001d610022565b6100d4565b7ff0c57e16840df040f15088dc2f81fe391c3923bec73e23a9662efc9c229c6a00805468010000000000000000900460ff16156100725760405163f92ee8a960e01b815260040160405180910390fd5b80546001600160401b03908116146100d15780546001600160401b0319166001600160401b0390811782556040519081527fc7f505b2f371ae2175ee4913f4499e1f2633a7b5936321eed1cdaeb6115181d29060200160405180910390a15b50565b608051611c606100fd60003960008181610b7c01528181610ba50152610ce60152611c606000f3fe60806040526004361061012e5760003560e01c8063715018a6116100ab578063a9059cbb1161006f578063a9059cbb146103d5578063ad3cb1cc146103f5578063cd6dc68714610426578063d505accf14610446578063dd62ed3e14610466578063f2fde38b1461048657610179565b8063715018a61461031c5780637ecebe001461033157806384b0196e146103515780638da5cb5b1461037957806395d89b41146103c057610179565b80633644e515116100f25780633644e5151461028f5780634f1ef286146102a457806352d1902d146102b957806354fd4d50146102ce57806370a08231146102fc57610179565b806306fdde03146101ba578063095ea7b3146101e557806318160ddd1461021557806323b872dd14610253578063313ce5671461027357610179565b366101795760405162461bcd60e51b815260206004820152601660248201527542616e6b546f6b656e3a206e6f742070617961626c6560501b60448201526064015b60405180910390fd5b60405162461bcd60e51b815260206004820152601660248201527542616e6b546f6b656e3a206e6f742070617961626c6560501b6044820152606401610170565b3480156101c657600080fd5b506101cf6104a6565b6040516101dc919061174f565b60405180910390f35b3480156101f157600080fd5b5061020561020036600461177e565b61054f565b60405190151581526020016101dc565b34801561022157600080fd5b507f52c63247e1f47db19d5ce0460030c497f067ca4cebf71ba98eeadabe20bace02545b6040519081526020016101dc565b34801561025f57600080fd5b5061020561026e3660046117a8565b610569565b34801561027f57600080fd5b50604051601281526020016101dc565b34801561029b57600080fd5b5061024561058f565b6102b76102b23660046117fb565b61059e565b005b3480156102c557600080fd5b506102456105bd565b3480156102da57600080fd5b506040805180820190915260058152640312e302e360dc1b60208201526101cf565b34801561030857600080fd5b506102456103173660046118c5565b6105da565b34801561032857600080fd5b506102b761060d565b34801561033d57600080fd5b5061024561034c3660046118c5565b610621565b34801561035d57600080fd5b5061036661062c565b6040516101dc97969594939291906118e0565b34801561038557600080fd5b507f9016d09d72d40fdae2fd8ceac6b6234c7706214fd39c1cd1e609a0528c199300546040516001600160a01b0390911681526020016101dc565b3480156103cc57600080fd5b506101cf6106d8565b3480156103e157600080fd5b506102056103f036600461177e565b610717565b34801561040157600080fd5b506101cf604051806040016040528060058152602001640352e302e360dc1b81525081565b34801561043257600080fd5b506102b761044136600461177e565b610725565b34801561045257600080fd5b506102b7610461366004611978565b6108af565b34801561047257600080fd5b506102456104813660046119eb565b610a08565b34801561049257600080fd5b506102b76104a13660046118c5565b610a52565b60606000600080516020611bcb8339815191525b90508060030180546104cb90611a1e565b80601f01602080910402602001604051908101604052809291908181526020018280546104f790611a1e565b80156105445780601f1061051957610100808354040283529160200191610544565b820191906000526020600020905b81548152906001019060200180831161052757829003601f168201915b505050505091505090565b60003361055d818585610a90565b60019150505b92915050565b600033610577858285610aa2565b610582858585610b08565b60019150505b9392505050565b6000610599610b67565b905090565b6105a6610b71565b6105af82610c16565b6105b98282610c1e565b5050565b60006105c7610cdb565b50600080516020611c0b83398151915290565b600080600080516020611bcb8339815191525b6001600160a01b0390931660009081526020939093525050604090205490565b610615610d24565b61061f6000610d7f565b565b600061056382610df0565b60006060808280808381600080516020611beb833981519152805490915015801561065957506001810154155b61069d5760405162461bcd60e51b81526020600482015260156024820152741152540dcc4c8e88155b9a5b9a5d1a585b1a5e9959605a1b6044820152606401610170565b6106a5610e19565b6106ad610e58565b60408051600080825260208201909252600f60f81b9c939b5091995046985030975095509350915050565b7f52c63247e1f47db19d5ce0460030c497f067ca4cebf71ba98eeadabe20bace048054606091600080516020611bcb833981519152916104cb90611a1e565b60003361055d818585610b08565b7ff0c57e16840df040f15088dc2f81fe391c3923bec73e23a9662efc9c229c6a008054600160401b810460ff16159067ffffffffffffffff1660008115801561076b5750825b905060008267ffffffffffffffff1660011480156107885750303b155b905081158015610796575080155b156107b45760405163f92ee8a960e01b815260040160405180910390fd5b845467ffffffffffffffff1916600117855583156107de57845460ff60401b1916600160401b1785555b610820604051806040016040528060048152602001630464c49560e41b815250604051806040016040528060048152602001630464c49560e41b815250610e70565b61082987610e82565b610831610e93565b610856604051806040016040528060048152602001630464c49560e41b815250610e9b565b6108608787610ec6565b83156108a657845460ff60401b19168555604051600181527fc7f505b2f371ae2175ee4913f4499e1f2633a7b5936321eed1cdaeb6115181d29060200160405180910390a15b50505050505050565b834211156108d35760405163313c898160e11b815260048101859052602401610170565b60007f6e71edae12b1b97f4d1f60370fef10105fa2faae0126114a169c64845d6126c988888861093f8c6001600160a01b031660009081527f5ab42ced628888259c08ac98db1eb0cf702fc1501344311d8b100cd1bfe4bb006020526040902080546001810190915590565b6040805160208101969096526001600160a01b0394851690860152929091166060840152608083015260a082015260c0810186905260e001604051602081830303815290604052805190602001209050600061099a82610efc565b905060006109aa82878787610f29565b9050896001600160a01b0316816001600160a01b0316146109f1576040516325c0072360e11b81526001600160a01b0380831660048301528b166024820152604401610170565b6109fc8a8a8a610a90565b50505050505050505050565b6001600160a01b0391821660009081527f52c63247e1f47db19d5ce0460030c497f067ca4cebf71ba98eeadabe20bace016020908152604080832093909416825291909152205490565b610a5a610d24565b6001600160a01b038116610a8457604051631e4fbdf760e01b815260006004820152602401610170565b610a8d81610d7f565b50565b610a9d8383836001610f57565b505050565b6000610aae8484610a08565b90506000198114610b025781811015610af357604051637dc7a0d960e11b81526001600160a01b03841660048201526024810182905260448101839052606401610170565b610b0284848484036000610f57565b50505050565b6001600160a01b038316610b3257604051634b637e8f60e11b815260006004820152602401610170565b6001600160a01b038216610b5c5760405163ec442f0560e01b815260006004820152602401610170565b610a9d83838361103f565b600061059961117d565b306001600160a01b037f0000000000000000000000000000000000000000000000000000000000000000161480610bf857507f00000000000000000000000000000000000000000000000000000000000000006001600160a01b0316610bec600080516020611c0b833981519152546001600160a01b031690565b6001600160a01b031614155b1561061f5760405163703e46dd60e11b815260040160405180910390fd5b610a8d610d24565b816001600160a01b03166352d1902d6040518163ffffffff1660e01b8152600401602060405180830381865afa925050508015610c78575060408051601f3d908101601f19168201909252610c7591810190611a58565b60015b610ca057604051634c9c8ce360e01b81526001600160a01b0383166004820152602401610170565b600080516020611c0b8339815191528114610cd157604051632a87526960e21b815260048101829052602401610170565b610a9d83836111f1565b306001600160a01b037f0000000000000000000000000000000000000000000000000000000000000000161461061f5760405163703e46dd60e11b815260040160405180910390fd5b33610d567f9016d09d72d40fdae2fd8ceac6b6234c7706214fd39c1cd1e609a0528c199300546001600160a01b031690565b6001600160a01b03161461061f5760405163118cdaa760e01b8152336004820152602401610170565b7f9016d09d72d40fdae2fd8ceac6b6234c7706214fd39c1cd1e609a0528c19930080546001600160a01b031981166001600160a01b03848116918217845560405192169182907f8be0079c531659141344cd1fd0a4f28419497f9722a3daafe3b4186f6b6457e090600090a3505050565b6000807f5ab42ced628888259c08ac98db1eb0cf702fc1501344311d8b100cd1bfe4bb006105ed565b7fa16a46d94261c7517cc8ff89f61c0ce93598e3c849801011dee649a6a557d1028054606091600080516020611beb833981519152916104cb90611a1e565b60606000600080516020611beb8339815191526104ba565b610e78611247565b6105b98282611290565b610e8a611247565b610a8d816112e1565b61061f611247565b610ea3611247565b610a8d81604051806040016040528060018152602001603160f81b8152506112e9565b6001600160a01b038216610ef05760405163ec442f0560e01b815260006004820152602401610170565b6105b96000838361103f565b6000610563610f09610b67565b8360405161190160f01b8152600281019290925260228201526042902090565b600080600080610f3b8888888861134a565b925092509250610f4b8282611419565b50909695505050505050565b600080516020611bcb8339815191526001600160a01b038516610f905760405163e602df0560e01b815260006004820152602401610170565b6001600160a01b038416610fba57604051634a1406b160e11b815260006004820152602401610170565b6001600160a01b0380861660009081526001830160209081526040808320938816835292905220839055811561103857836001600160a01b0316856001600160a01b03167f8c5be1e5ebec7d5bd14f71427d1e84f3dd0314c0f7b2291e5b200ac8c7c3b9258560405161102f91815260200190565b60405180910390a35b5050505050565b600080516020611bcb8339815191526001600160a01b03841661107b57818160020160008282546110709190611a71565b909155506110ed9050565b6001600160a01b038416600090815260208290526040902054828110156110ce5760405163391434e360e21b81526001600160a01b03861660048201526024810182905260448101849052606401610170565b6001600160a01b03851660009081526020839052604090209083900390555b6001600160a01b03831661110b57600281018054839003905561112a565b6001600160a01b03831660009081526020829052604090208054830190555b826001600160a01b0316846001600160a01b03167fddf252ad1be2c89b69c2b068fc378daa952ba7f163c4a11628f55a4df523b3ef8460405161116f91815260200190565b60405180910390a350505050565b60007f8b73c3c69bb8fe3d512ecc4cf759cc79239f7b179b0ffacaa9a75d522b39400f6111a86114d2565b6111b061153c565b60408051602081019490945283019190915260608201524660808201523060a082015260c00160405160208183030381529060405280519060200120905090565b6111fa82611580565b6040516001600160a01b038316907fbc7cd75a20ee27fd9adebab32041f755214dbc6bffa90cc0225b39da2e5c2d3b90600090a280511561123f57610a9d82826115e5565b6105b961165b565b7ff0c57e16840df040f15088dc2f81fe391c3923bec73e23a9662efc9c229c6a0054600160401b900460ff1661061f57604051631afcd79f60e31b815260040160405180910390fd5b611298611247565b600080516020611bcb8339815191527f52c63247e1f47db19d5ce0460030c497f067ca4cebf71ba98eeadabe20bace036112d28482611ad9565b5060048101610b028382611ad9565b610a5a611247565b6112f1611247565b600080516020611beb8339815191527fa16a46d94261c7517cc8ff89f61c0ce93598e3c849801011dee649a6a557d10261132b8482611ad9565b506003810161133a8382611ad9565b5060008082556001909101555050565b600080807f7fffffffffffffffffffffffffffffff5d576e7357a4501ddfe92f46681b20a0841115611385575060009150600390508261140f565b604080516000808252602082018084528a905260ff891692820192909252606081018790526080810186905260019060a0016020604051602081039080840390855afa1580156113d9573d6000803e3d6000fd5b5050604051601f1901519150506001600160a01b0381166114055750600092506001915082905061140f565b9250600091508190505b9450945094915050565b600082600381111561142d5761142d611b98565b03611436575050565b600182600381111561144a5761144a611b98565b036114685760405163f645eedf60e01b815260040160405180910390fd5b600282600381111561147c5761147c611b98565b0361149d5760405163fce698f760e01b815260048101829052602401610170565b60038260038111156114b1576114b1611b98565b036105b9576040516335e2f38360e21b815260048101829052602401610170565b6000600080516020611beb833981519152816114ec610e19565b80519091501561150457805160209091012092915050565b81548015611513579392505050565b7fc5d2460186f7233c927e7db2dcc703c0e500b653ca82273b7bfad8045d85a470935050505090565b6000600080516020611beb83398151915281611556610e58565b80519091501561156e57805160209091012092915050565b60018201548015611513579392505050565b806001600160a01b03163b6000036115b657604051634c9c8ce360e01b81526001600160a01b0382166004820152602401610170565b600080516020611c0b83398151915280546001600160a01b0319166001600160a01b0392909216919091179055565b6060600080846001600160a01b0316846040516116029190611bae565b600060405180830381855af49150503d806000811461163d576040519150601f19603f3d011682016040523d82523d6000602084013e611642565b606091505b509150915061165285838361167a565b95945050505050565b341561061f5760405163b398979f60e01b815260040160405180910390fd5b60608261168f5761168a826116d6565b610588565b81511580156116a657506001600160a01b0384163b155b156116cf57604051639996b31560e01b81526001600160a01b0385166004820152602401610170565b5080610588565b8051156116e65780518082602001fd5b60405163d6bda27560e01b815260040160405180910390fd5b60005b8381101561171a578181015183820152602001611702565b50506000910152565b6000815180845261173b8160208601602086016116ff565b601f01601f19169290920160200192915050565b6020815260006105886020830184611723565b80356001600160a01b038116811461177957600080fd5b919050565b6000806040838503121561179157600080fd5b61179a83611762565b946020939093013593505050565b6000806000606084860312156117bd57600080fd5b6117c684611762565b92506117d460208501611762565b929592945050506040919091013590565b634e487b7160e01b600052604160045260246000fd5b6000806040838503121561180e57600080fd5b61181783611762565b9150602083013567ffffffffffffffff81111561183357600080fd5b8301601f8101851361184457600080fd5b803567ffffffffffffffff81111561185e5761185e6117e5565b604051601f8201601f19908116603f0116810167ffffffffffffffff8111828210171561188d5761188d6117e5565b6040528181528282016020018710156118a557600080fd5b816020840160208301376000602083830101528093505050509250929050565b6000602082840312156118d757600080fd5b61058882611762565b60ff60f81b8816815260e0602082015260006118ff60e0830189611723565b82810360408401526119118189611723565b606084018890526001600160a01b038716608085015260a0840186905283810360c08501528451808252602080870193509091019060005b81811015611967578351835260209384019390920191600101611949565b50909b9a5050505050505050505050565b600080600080600080600060e0888a03121561199357600080fd5b61199c88611762565b96506119aa60208901611762565b95506040880135945060608801359350608088013560ff811681146119ce57600080fd5b9699959850939692959460a0840135945060c09093013592915050565b600080604083850312156119fe57600080fd5b611a0783611762565b9150611a1560208401611762565b90509250929050565b600181811c90821680611a3257607f821691505b602082108103611a5257634e487b7160e01b600052602260045260246000fd5b50919050565b600060208284031215611a6a57600080fd5b5051919050565b8082018082111561056357634e487b7160e01b600052601160045260246000fd5b601f821115610a9d57806000526020600020601f840160051c81016020851015611ab95750805b601f840160051c820191505b818110156110385760008155600101611ac5565b815167ffffffffffffffff811115611af357611af36117e5565b611b0781611b018454611a1e565b84611a92565b6020601f821160018114611b3b5760008315611b235750848201515b600019600385901b1c1916600184901b178455611038565b600084815260208120601f198516915b82811015611b6b5787850151825560209485019460019092019101611b4b565b5084821015611b895786840151600019600387901b60f8161c191681555b50505050600190811b01905550565b634e487b7160e01b600052602160045260246000fd5b60008251611bc08184602087016116ff565b919091019291505056fe52c63247e1f47db19d5ce0460030c497f067ca4cebf71ba98eeadabe20bace00a16a46d94261c7517cc8ff89f61c0ce93598e3c849801011dee649a6a557d100360894a13ba1a3210667c828492db98dca3e2076cc3735a920a3ca505d382bbca264697066735822122095a32ee4a1a319b24d5246fef22b66586b104f7512034d4de81bc3ccd19cae5c64736f6c634300081c0033",
  "linkReferences": {},
  "deployedLinkReferences": {}
}