{
  "_format": "hh-sol-artifact-1",
  "contractName": "BankApp",
  "sourceName": "contracts/BankApp.sol",
  "abi": [
    {
      "inputs": [],
      "stateMutability": "nonpayable",
      "type": "constructor"
    },
    {
      "inputs": [
        {
          "internalType": "address",
          "name": "addr",
          "type": "address"
        }
      ],
      "name": "AccountAddressNotFound",
      "type": "error"
    },
    {
      "inputs": [
        {
          "internalType": "address",
          "name": "target",
          "type": "address"
        }
      ],
      "name": "AddressEmptyCode",
      "type": "error"
    },
    {
      "inputs": [
        {
          "internalType": "address",
          "name": "implementation",
          "type": "address"
        }
      ],
      "name": "ERC1967InvalidImplementation",
      "type": "error"
    },
    {
      "inputs": [],
      "name": "ERC1967NonPayable",
      "type": "error"
    },
    {
      "inputs": [],
      "name": "FailedCall",
      "type": "error"
    },
    {
      "inputs": [],
      "name": "InvalidInitialization",
      "type": "error"
    },
    {
      "inputs": [],
      "name": "NotInitializing",
      "type": "error"
    },
    {
      "inputs": [
        {
          "internalType": "address",
          "name": "owner",
          "type": "address"
        }
      ],
      "name": "OwnableInvalidOwner",
      "type": "error"
    },
    {
      "inputs": [
        {
          "internalType": "address",
          "name": "account",
          "type": "address"
        }
      ],
      "name": "OwnableUnauthorizedAccount",
      "type": "error"
    },
    {
      "inputs": [],
      "name": "ReentrancyGuardReentrantCall",
      "type": "error"
    },
    {
      "inputs": [
        {
          "internalType": "address",
          "name": "token",
          "type": "address"
        }
      ],
      "name": "SafeERC20FailedOperation",
      "type": "error"
    },
    {
      "inputs": [],
      "name": "UUPSUnauthorizedCallContext",
      "type": "error"
    },
    {
      "inputs": [
        {
          "internalType": "bytes32",
          "name": "slot",
          "type": "bytes32"
        }
      ],
      "name": "UUPSUnsupportedProxiableUUID",
      "type": "error"
    },
    {
      "anonymous": false,
      "inputs": [
        {
          "indexed": true,
          "internalType": "address",
          "name": "from",
          "type": "address"
        },
        {
          "indexed": true,
          "internalType": "address",
          "name": "to",
          "type": "address"
        },
        {
          "indexed": false,
          "internalType": "uint256",
          "name": "value",
          "type": "uint256"
        }
      ],
      "name": "BankReceived",
      "type": "event"
    },
    {
      "anonymous": false,
      "inputs": [
        {
          "indexed": false,
          "internalType": "uint64",
          "name": "version",
          "type": "uint64"
        }
      ],
      "name": "Initialized",
      "type": "event"
    },
    {
      "anonymous": false,
      "inputs": [
        {
          "indexed": true,
          "internalType": "address",
          "name": "previousOwner",
          "type": "address"
        },
        {
          "indexed": true,
          "internalType": "address",
          "name": "newOwner",
          "type": "address"
        }
      ],
      "name": "OwnershipTransferred",
      "type": "event"
    },
    {
      "anonymous": false,
      "inputs": [
        {
          "indexed": true,
          "internalType": "address",
          "name": "from",
          "type": "address"
        },
        {
          "indexed": true,
          "internalType": "address",
          "name": "to",
          "type": "address"
        },
        {
          "indexed": false,
          "internalType": "uint256",
          "name": "value",
          "type": "uint256"
        }
      ],
      "name": "TokenExchanged",
      "type": "event"
    },
    {
      "anonymous": false,
      "inputs": [
        {
          "indexed": true,
          "internalType": "address",
          "name": "from",
          "type": "address"
        },
        {
          "indexed": true,
          "internalType": "address",
          "name": "to",
          "type": "address"
        },
        {
          "indexed": false,
          "internalType": "uint256",
          "name": "value",
          "type": "uint256"
        }
      ],
      "name": "TokenWithdraw",
      "type": "event"
    },
    {
      "anonymous": false,
      "inputs": [
        {
          "indexed": true,
          "internalType": "address",
          "name": "implementation",
          "type": "address"
        }
      ],
      "name": "Upgraded",
      "type": "event"
    },
    {
      "anonymous": false,
      "inputs": [
        {
          "indexed": true,
          "internalType": "address",
          "name": "addr",
          "type": "address"
        },
        {
          "indexed": true,
          "internalType": "string",
          "name": "accountId",
          "type": "string"
        },
        {
          "indexed": false,
          "internalType": "string",
          "name": "name",
          "type": "string"
        }
      ],
      "name": "WalletBinded",
      "type": "event"
    },
    {
      "anonymous": false,
      "inputs": [
        {
          "indexed": true,
          "internalType": "address",
          "name": "addr",
          "type": "address"
        },
        {
          "indexed": true,
          "internalType": "string",
          "name": "accountId",
          "type": "string"
        },
        {
          "indexed": false,
          "internalType": "string",
          "name": "name",
          "type": "string"
        }
      ],
      "name": "WalletDeleted",
      "type": "event"
    },
    {
      "inputs": [],
      "name": "UPGRADE_INTERFACE_VERSION",
      "outputs": [
        {
          "internalType": "string",
          "name": "",
          "type": "string"
        }
      ],
      "stateMutability": "view",
      "type": "function"
    },
    {
      "inputs": [],
      "name": "bankTokenAddress",
      "outputs": [
        {
          "internalType": "address",
          "name": "",
          "type": "address"
        }
      ],
      "stateMutability": "view",
      "type": "function"
    },
    {
      "inputs": [
        {
          "internalType": "string",
          "name": "name",
          "type": "string"
        },
        {
          "internalType": "string",
          "name": "accountId",
          "type": "string"
        },
        {
          "internalType": "address",
          "name": "addr",
          "type": "address"
        }
      ],
      "name": "bindWallet",
      "outputs": [
        {
          "internalType": "bool",
          "name": "",
          "type": "bool"
        }
      ],
      "stateMutability": "nonpayable",
      "type": "function"
    },
    {
      "inputs": [
        {
          "internalType": "string",
          "name": "accountId",
          "type": "string"
        }
      ],
      "name": "deleteWallet",
      "outputs": [
        {
          "internalType": "bool",
          "name": "",
          "type": "bool"
        }
      ],
      "stateMutability": "nonpayable",
      "type": "function"
    },
    {
      "inputs": [
        {
          "internalType": "uint256",
          "name": "amount",
          "type": "uint256"
        }
      ],
      "name": "exchangeTokens",
      "outputs": [
        {
          "internalType": "bool",
          "name": "",
          "type": "bool"
        }
      ],
      "stateMutability": "nonpayable",
      "type": "function"
    },
    {
      "inputs": [
        {
          "internalType": "address",
          "name": "addr",
          "type": "address"
        }
      ],
      "name": "getBalance",
      "outputs": [
        {
          "internalType": "uint256",
          "name": "",
          "type": "uint256"
        }
      ],
      "stateMutability": "view",
      "type": "function"
    },
    {
      "inputs": [],
      "name": "getTokenBalance",
      "outputs": [
        {
          "internalType": "uint256",
          "name": "",
          "type": "uint256"
        }
      ],
      "stateMutability": "view",
      "type": "function"
    },
    {
      "inputs": [
        {
          "internalType": "string",
          "name": "accountId",
          "type": "string"
        }
      ],
      "name": "getWallet",
      "outputs": [
        {
          "components": [
            {
              "internalType": "string",
              "name": "id",
              "type": "string"
            },
            {
              "internalType": "string",
              "name": "name",
              "type": "string"
            },
            {
              "internalType": "address",
              "name": "addr",
              "type": "address"
            }
          ],
          "internalType": "struct UserWallet",
          "name": "",
          "type": "tuple"
        }
      ],
      "stateMutability": "view",
      "type": "function"
    },
    {
      "inputs": [
        {
          "internalType": "address",
          "name": "initialOwner",
          "type": "address"
        },
        {
          "internalType": "address",
          "name": "_bankTokenAddress",
          "type": "address"
        }
      ],
      "name": "initialize",
      "outputs": [],
      "stateMutability": "nonpayable",
      "type": "function"
    },
    {
      "inputs": [],
      "name": "owner",
      "outputs": [
        {
          "internalType": "address",
          "name": "",
          "type": "address"
        }
      ],
      "stateMutability": "view",
      "type": "function"
    },
    {
      "inputs": [],
      "name": "proxiableUUID",
      "outputs": [
        {
          "internalType": "bytes32",
          "name": "",
          "type": "bytes32"
        }
      ],
      "stateMutability": "view",
      "type": "function"
    },
    {
      "inputs": [],
      "name": "renounceOwnership",
      "outputs": [],
      "stateMutability": "nonpayable",
      "type": "function"
    },
    {
      "inputs": [
        {
          "internalType": "address",
          "name": "newOwner",
          "type": "address"
        }
      ],
      "name": "transferOwnership",
      "outputs": [],
      "stateMutability": "nonpayable",
      "type": "function"
    },
    {
      "inputs": [
        {
          "internalType": "address",
          "name": "newImplementation",
          "type": "address"
        },
        {
          "internalType": "bytes",
          "name": "data",
          "type": "bytes"
        }
      ],
      "name": "upgradeToAndCall",
      "outputs": [],
      "stateMutability": "payable",
      "type": "function"
    },
    {
      "inputs": [],
      "name": "version",
      "outputs": [
        {
          "internalType": "string",
          "name": "",
          "type": "string"
        }
      ],
      "stateMutability": "pure",
      "type": "function"
    },
    {
      "inputs": [
        {
          "internalType": "uint256",
          "name": "amount",
          "type": "uint256"
        },
        {
          "internalType": "uint256",
          "name": "deadline",
          "type": "uint256"
        },
        {
          "internalType": "uint8",
          "name": "v",
          "type": "uint8"
        },
        {
          "internalType": "bytes32",
          "name": "r",
          "type": "bytes32"
        },
        {
          "internalType": "bytes32",
          "name": "s",
          "type": "bytes32"
        }
      ],
      "name": "withdrawTokens",
      "outputs": [
        {
          "internalType": "bool",
          "name": "",
          "type": "bool"
        }
      ],
      "stateMutability": "nonpayable",
      "type": "function"
    },
    {
      "inputs": [
        {
          "internalType": "uint256",
          "name": "amount",
          "type": "uint256"
        }
      ],
      "name": "withdrawWallet",
      "outputs": [
        {
          "internalType": "bool",
          "name": "",
          "type": "bool"
        }
      ],
      "stateMutability": "nonpayable",
      "type": "function"
    },
    {
      "stateMutability": "payable",
      "type": "receive"
    }
  ],
  "bytecode": "0x60a06040523060805234801561001457600080fd5b5061001d610022565b6100d4565b7ff0c57e16840df040f15088dc2f81fe391c3923bec73e23a9662efc9c229c6a00805468010000000000000000900460ff16156100725760405163f92ee8a960e01b815260040160405180910390fd5b80546001600160401b03908116146100d15780546001600160401b0319166001600160401b0390811782556040519081527fc7f505b2f371ae2175ee4913f4499e1f2633a7b5936321eed1cdaeb6115181d29060200160405180910390a15b50565b608051611d256100fd600039600081816112090152818161123201526113730152611d256000f3fe6080604052600436106101025760003560e01c80638d3ecfae11610095578063ad3cb1cc11610064578063ad3cb1cc14610392578063be87ab3f146103c3578063de4781f5146103e3578063f2fde38b14610403578063f8b2cb4f1461042357600080fd5b80638d3ecfae146102d05780638da5cb5b14610308578063a4e2df6614610345578063a4ece5371461037257600080fd5b806352d1902d116100d157806352d1902d1461024c57806354fd4d501461026f578063715018a6146102a657806382b2e257146102bb57600080fd5b80633574c4e1146101c457806340477126146101f9578063485cc955146102195780634f1ef2861461023957600080fd5b366101bf5761010f610466565b336000818152600080516020611c908339815191526020526040902054600080516020611cb08339815191529190610147348261177a565b6001600160a01b0383166000818152600286016020526040908190208390555191925030917fc119cca36c129469d1f690f8de11edc3511a623daa37f907067f233470d98acc9061019b9034815260200190565b60405180910390a35050506101bd6001600080516020611cd083398151915255565b005b600080fd5b3480156101d057600080fd5b506101e46101df36600461178d565b61049e565b60405190151581526020015b60405180910390f35b34801561020557600080fd5b506101e46102143660046117dc565b6106fd565b34801561022557600080fd5b506101bd61023436600461180c565b6108d7565b6101bd6102473660046118cf565b610a0b565b34801561025857600080fd5b50610261610a2a565b6040519081526020016101f0565b34801561027b57600080fd5b506040805180820190915260058152640312e302e360dc1b60208201525b6040516101f09190611981565b3480156102b257600080fd5b506101bd610a47565b3480156102c757600080fd5b50610261610a5b565b3480156102dc57600080fd5b506000546102f0906001600160a01b031681565b6040516001600160a01b0390911681526020016101f0565b34801561031457600080fd5b507f9016d09d72d40fdae2fd8ceac6b6234c7706214fd39c1cd1e609a0528c199300546001600160a01b03166102f0565b34801561035157600080fd5b506103656103603660046119b4565b610adb565b6040516101f091906119f1565b34801561037e57600080fd5b506101e461038d3660046119b4565b610c6c565b34801561039e57600080fd5b50610299604051806040016040528060058152602001640352e302e360dc1b81525081565b3480156103cf57600080fd5b506101e46103de3660046117dc565b610edc565b3480156103ef57600080fd5b506101e46103fe366004611a4c565b610fcb565b34801561040f57600080fd5b506101bd61041e366004611ac5565b611104565b34801561042f57600080fd5b5061026161043e366004611ac5565b6001600160a01b03166000908152600080516020611c90833981519152602052604090205490565b600080516020611cd083398151915280546001190161049857604051633ee5aeb560e01b815260040160405180910390fd5b60029055565b60006104a8610466565b600080546001600160a01b031690816370a08231336040516001600160e01b031960e084901b1681526001600160a01b039091166004820152602401602060405180830381865afa158015610501573d6000803e3d6000fd5b505050506040513d601f19601f820116820180604052508101906105259190611ae0565b90508781101561057c5760405162461bcd60e51b815260206004820152601a60248201527f496e73756666696369656e7420546f6b656e2062616c616e636500000000000060448201526064015b60405180910390fd5b6000546001600160a01b03168063d505accf336040516001600160e01b031960e084901b1681526001600160a01b039091166004820152306024820152604481018c9052606481018b905260ff8a16608482015260a4810189905260c4810188905260e401600060405180830381600087803b1580156105fb57600080fd5b505af192505050801561060c575060015b610648573d80801561063a576040519150601f19603f3d011682016040523d82523d6000602084013e61063f565b606091505b50805160208201fd5b61065d6001600160a01b03841633308c611142565b336000908152600080516020611c90833981519152602052604081208054600080516020611cb0833981519152928c929161069990849061177a565b90915550506040518a8152309033907f7b2929a0129e91c002be982e70bea0ff69b1dda1722507dc5b60490b134a985b9060200160405180910390a360019450505050506106f46001600080516020611cd083398151915255565b95945050505050565b6000610707610466565b336000908152600080516020611c908339815191526020526040902054600080516020611cb083398151915290838110156107845760405162461bcd60e51b815260206004820152601b60248201527f496e73756666696369656e742057616c6c65742062616c616e636500000000006044820152606401610573565b61078e8482611af9565b336000908152600284016020908152604080832093909355815483516370a0823160e01b815230600482015293516001600160a01b039091169384926370a08231926024808401938290030181865afa1580156107ef573d6000803e3d6000fd5b505050506040513d601f19601f820116820180604052508101906108139190611ae0565b9050858110156108655760405162461bcd60e51b815260206004820152601a60248201527f496e73756666696369656e7420546f6b656e2062616c616e63650000000000006044820152606401610573565b61087c336000546001600160a01b031690886111af565b604051868152339030907f81aaa18332363199c2673bf9efd29fedf28c9cf21a0d14b986854c436993c06f9060200160405180910390a360019450505050506108d26001600080516020611cd083398151915255565b919050565b7ff0c57e16840df040f15088dc2f81fe391c3923bec73e23a9662efc9c229c6a008054600160401b810460ff16159067ffffffffffffffff1660008115801561091d5750825b905060008267ffffffffffffffff16600114801561093a5750303b155b905081158015610948575080155b156109665760405163f92ee8a960e01b815260040160405180910390fd5b845467ffffffffffffffff19166001178555831561099057845460ff60401b1916600160401b1785555b610999876111e5565b6109a16111f6565b600080546001600160a01b0319166001600160a01b0388161790558315610a0257845460ff60401b19168555604051600181527fc7f505b2f371ae2175ee4913f4499e1f2633a7b5936321eed1cdaeb6115181d29060200160405180910390a15b50505050505050565b610a136111fe565b610a1c826112a3565b610a2682826112ab565b5050565b6000610a34611368565b50600080516020611c7083398151915290565b610a4f6113b1565b610a59600061140c565b565b600080546001600160a01b03166370a08231336040516001600160e01b031960e084901b1681526001600160a01b039091166004820152602401602060405180830381865afa158015610ab2573d6000803e3d6000fd5b505050506040513d601f19601f82011682018060405250810190610ad69190611ae0565b905090565b604080516060808201835280825260208201526000818301529051600080516020611cb0833981519152908190610b13908590611b0c565b9081526020016040518091039020604051806060016040529081600082018054610b3c90611b28565b80601f0160208091040260200160405190810160405280929190818152602001828054610b6890611b28565b8015610bb55780601f10610b8a57610100808354040283529160200191610bb5565b820191906000526020600020905b815481529060010190602001808311610b9857829003601f168201915b50505050508152602001600182018054610bce90611b28565b80601f0160208091040260200160405190810160405280929190818152602001828054610bfa90611b28565b8015610c475780601f10610c1c57610100808354040283529160200191610c47565b820191906000526020600020905b815481529060010190602001808311610c2a57829003601f168201915b5050509183525050600291909101546001600160a01b03166020909101529392505050565b6000610c76610466565b604051600080516020611cb0833981519152906000908290610c99908690611b0c565b9081526020016040518091039020604051806060016040529081600082018054610cc290611b28565b80601f0160208091040260200160405190810160405280929190818152602001828054610cee90611b28565b8015610d3b5780601f10610d1057610100808354040283529160200191610d3b565b820191906000526020600020905b815481529060010190602001808311610d1e57829003601f168201915b50505050508152602001600182018054610d5490611b28565b80601f0160208091040260200160405190810160405280929190818152602001828054610d8090611b28565b8015610dcd5780601f10610da257610100808354040283529160200191610dcd565b820191906000526020600020905b815481529060010190602001808311610db057829003601f168201915b5050509183525050600291909101546001600160a01b03166020909101526040519091508290610dfe908690611b0c565b9081526040519081900360200190206000610e198282611716565b610e27600183016000611716565b5060020180546001600160a01b03191690556040808201516001600160a01b0316600090815260018401602052908120610e6091611716565b83604051610e6e9190611b0c565b604051809103902081604001516001600160a01b03167ff192b4f4a191128131bcb152ace0151a66be6710484a418c2fdf43ab0ee4cef88360200151604051610eb79190611981565b60405180910390a36001925050506108d26001600080516020611cd083398151915255565b6000610ee6610466565b336000908152600080516020611c908339815191526020526040902054600080516020611cb08339815191529083811015610f635760405162461bcd60e51b815260206004820152601b60248201527f496e73756666696369656e742057616c6c65742062616c616e636500000000006044820152606401610573565b610f6d8482611af9565b336000818152600285016020526040808220939093559151909186156108fc02918791818181858888f19350505050158015610fad573d6000803e3d6000fd5b506001925050506108d26001600080516020611cd083398151915255565b6000610fd5610466565b60408051606081018252848152602081018690526001600160a01b038416818301529051600080516020611cb083398151915291908290611017908790611b0c565b908152604051908190036020019020815181906110349082611bb0565b50602082015160018201906110499082611bb0565b5060409182015160029190910180546001600160a01b0319166001600160a01b039283161790558416600090815260018301602052206110898582611bb0565b50836040516110989190611b0c565b6040518091039020836001600160a01b03167f4d2baad639a0489d4b482d6a6de017882b08f812856b2251087eb10d0eca7371876040516110d99190611981565b60405180910390a360019150506110fd6001600080516020611cd083398151915255565b9392505050565b61110c6113b1565b6001600160a01b03811661113657604051631e4fbdf760e01b815260006004820152602401610573565b61113f8161140c565b50565b6040516001600160a01b0384811660248301528381166044830152606482018390526111a99186918216906323b872dd906084015b604051602081830303815290604052915060e01b6020820180516001600160e01b03838183161783525050505061147d565b50505050565b6040516001600160a01b038381166024830152604482018390526111e091859182169063a9059cbb90606401611177565b505050565b6111ed6114ee565b61113f81611537565b610a596114ee565b306001600160a01b037f000000000000000000000000000000000000000000000000000000000000000016148061128557507f00000000000000000000000000000000000000000000000000000000000000006001600160a01b0316611279600080516020611c70833981519152546001600160a01b031690565b6001600160a01b031614155b15610a595760405163703e46dd60e11b815260040160405180910390fd5b61113f6113b1565b816001600160a01b03166352d1902d6040518163ffffffff1660e01b8152600401602060405180830381865afa925050508015611305575060408051601f3d908101601f1916820190925261130291810190611ae0565b60015b61132d57604051634c9c8ce360e01b81526001600160a01b0383166004820152602401610573565b600080516020611c70833981519152811461135e57604051632a87526960e21b815260048101829052602401610573565b6111e0838361153f565b306001600160a01b037f00000000000000000000000000000000000000000000000000000000000000001614610a595760405163703e46dd60e11b815260040160405180910390fd5b336113e37f9016d09d72d40fdae2fd8ceac6b6234c7706214fd39c1cd1e609a0528c199300546001600160a01b031690565b6001600160a01b031614610a595760405163118cdaa760e01b8152336004820152602401610573565b7f9016d09d72d40fdae2fd8ceac6b6234c7706214fd39c1cd1e609a0528c19930080546001600160a01b031981166001600160a01b03848116918217845560405192169182907f8be0079c531659141344cd1fd0a4f28419497f9722a3daafe3b4186f6b6457e090600090a3505050565b600080602060008451602086016000885af1806114a0576040513d6000823e3d81fd5b50506000513d915081156114b85780600114156114c5565b6001600160a01b0384163b155b156111a957604051635274afe760e01b81526001600160a01b0385166004820152602401610573565b7ff0c57e16840df040f15088dc2f81fe391c3923bec73e23a9662efc9c229c6a0054600160401b900460ff16610a5957604051631afcd79f60e31b815260040160405180910390fd5b61110c6114ee565b61154882611595565b6040516001600160a01b038316907fbc7cd75a20ee27fd9adebab32041f755214dbc6bffa90cc0225b39da2e5c2d3b90600090a280511561158d576111e082826115fa565b610a26611672565b806001600160a01b03163b6000036115cb57604051634c9c8ce360e01b81526001600160a01b0382166004820152602401610573565b600080516020611c7083398151915280546001600160a01b0319166001600160a01b0392909216919091179055565b6060600080846001600160a01b0316846040516116179190611b0c565b600060405180830381855af49150503d8060008114611652576040519150601f19603f3d011682016040523d82523d6000602084013e611657565b606091505b5091509150611667858383611691565b925050505b92915050565b3415610a595760405163b398979f60e01b815260040160405180910390fd5b6060826116a6576116a1826116ed565b6110fd565b81511580156116bd57506001600160a01b0384163b155b156116e657604051639996b31560e01b81526001600160a01b0385166004820152602401610573565b50806110fd565b8051156116fd5780518082602001fd5b60405163d6bda27560e01b815260040160405180910390fd5b50805461172290611b28565b6000825580601f10611732575050565b601f01602090049060005260206000209081019061113f91905b80821115611760576000815560010161174c565b5090565b634e487b7160e01b600052601160045260246000fd5b8082018082111561166c5761166c611764565b600080600080600060a086880312156117a557600080fd5b8535945060208601359350604086013560ff811681146117c457600080fd5b94979396509394606081013594506080013592915050565b6000602082840312156117ee57600080fd5b5035919050565b80356001600160a01b03811681146108d257600080fd5b6000806040838503121561181f57600080fd5b611828836117f5565b9150611836602084016117f5565b90509250929050565b634e487b7160e01b600052604160045260246000fd5b60008067ffffffffffffffff8411156118705761187061183f565b50604051601f19601f85018116603f0116810181811067ffffffffffffffff8211171561189f5761189f61183f565b6040528381529050808284018510156118b757600080fd5b83836020830137600060208583010152509392505050565b600080604083850312156118e257600080fd5b6118eb836117f5565b9150602083013567ffffffffffffffff81111561190757600080fd5b8301601f8101851361191857600080fd5b61192785823560208401611855565b9150509250929050565b60005b8381101561194c578181015183820152602001611934565b50506000910152565b6000815180845261196d816020860160208601611931565b601f01601f19169290920160200192915050565b6020815260006110fd6020830184611955565b600082601f8301126119a557600080fd5b6110fd83833560208501611855565b6000602082840312156119c657600080fd5b813567ffffffffffffffff8111156119dd57600080fd5b6119e984828501611994565b949350505050565b602081526000825160606020840152611a0d6080840182611955565b90506020840151601f19848303016040850152611a2a8282611955565b604095909501516001600160a01b031660609490940193909352509192915050565b600080600060608486031215611a6157600080fd5b833567ffffffffffffffff811115611a7857600080fd5b611a8486828701611994565b935050602084013567ffffffffffffffff811115611aa157600080fd5b611aad86828701611994565b925050611abc604085016117f5565b90509250925092565b600060208284031215611ad757600080fd5b6110fd826117f5565b600060208284031215611af257600080fd5b5051919050565b8181038181111561166c5761166c611764565b60008251611b1e818460208701611931565b9190910192915050565b600181811c90821680611b3c57607f821691505b602082108103611b5c57634e487b7160e01b600052602260045260246000fd5b50919050565b601f8211156111e057806000526020600020601f840160051c81016020851015611b895750805b601f840160051c820191505b81811015611ba95760008155600101611b95565b5050505050565b815167ffffffffffffffff811115611bca57611bca61183f565b611bde81611bd88454611b28565b84611b62565b6020601f821160018114611c125760008315611bfa5750848201515b600019600385901b1c1916600184901b178455611ba9565b600084815260208120601f198516915b82811015611c425787850151825560209485019460019092019101611c22565b5084821015611c605786840151600019600387901b60f8161c191681555b50505050600190811b0190555056fe360894a13ba1a3210667c828492db98dca3e2076cc3735a920a3ca505d382bbc99c194d5da0fb73cf8183b37546c181862fea4cd0decd0982bb2c89abe454f0299c194d5da0fb73cf8183b37546c181862fea4cd0decd0982bb2c89abe454f009b779b17422d0df92223018b32b4d1fa46e071723d6817e2486d003becc55f00a2646970667358221220b68c2e953da6f2e7293588f5b59dd1dd37e7eb7ffe0105f9e74a96ce2384de5864736f6c634300081c0033",
  "linkReferences": {},
  "deployedLinkReferences": {}
}