{
  "_format": "hh-sol-artifact-1",
  "contractName": "AutoService",
  "sourceName": "contracts/AutoService.sol",
  "abi": [
    {
      "inputs": [],
      "stateMutability": "nonpayable",
      "type": "constructor"
    },
    {
      "inputs": [
        {
          "internalType": "address",
          "name": "target",
          "type": "address"
        }
      ],
      "name": "AddressEmptyCode",
      "type": "error"
    },
    {
      "inputs": [
        {
          "internalType": "address",
          "name": "implementation",
          "type": "address"
        }
      ],
      "name": "ERC1967InvalidImplementation",
      "type": "error"
    },
    {
      "inputs": [],
      "name": "ERC1967NonPayable",
      "type": "error"
    },
    {
      "inputs": [],
      "name": "FailedCall",
      "type": "error"
    },
    {
      "inputs": [],
      "name": "InvalidInitialization",
      "type": "error"
    },
    {
      "inputs": [],
      "name": "NotInitializing",
      "type": "error"
    },
    {
      "inputs": [
        {
          "internalType": "address",
          "name": "owner",
          "type": "address"
        }
      ],
      "name": "OwnableInvalidOwner",
      "type": "error"
    },
    {
      "inputs": [
        {
          "internalType": "address",
          "name": "account",
          "type": "address"
        }
      ],
      "name": "OwnableUnauthorizedAccount",
      "type": "error"
    },
    {
      "inputs": [],
      "name": "ReentrancyGuardReentrantCall",
      "type": "error"
    },
    {
      "inputs": [],
      "name": "UUPSUnauthorizedCallContext",
      "type": "error"
    },
    {
      "inputs": [
        {
          "internalType": "bytes32",
          "name": "slot",
          "type": "bytes32"
        }
      ],
      "name": "UUPSUnsupportedProxiableUUID",
      "type": "error"
    },
    {
      "anonymous": false,
      "inputs": [
        {
          "indexed": false,
          "internalType": "uint64",
          "name": "version",
          "type": "uint64"
        }
      ],
      "name": "Initialized",
      "type": "event"
    },
    {
      "anonymous": false,
      "inputs": [
        {
          "indexed": true,
          "internalType": "address",
          "name": "previousOwner",
          "type": "address"
        },
        {
          "indexed": true,
          "internalType": "address",
          "name": "newOwner",
          "type": "address"
        }
      ],
      "name": "OwnershipTransferred",
      "type": "event"
    },
    {
      "anonymous": false,
      "inputs": [
        {
          "indexed": true,
          "internalType": "address",
          "name": "implementation",
          "type": "address"
        }
      ],
      "name": "Upgraded",
      "type": "event"
    },
    {
      "inputs": [],
      "name": "UPGRADE_INTERFACE_VERSION",
      "outputs": [
        {
          "internalType": "string",
          "name": "",
          "type": "string"
        }
      ],
      "stateMutability": "view",
      "type": "function"
    },
    {
      "inputs": [],
      "name": "bankTokenAddress",
      "outputs": [
        {
          "internalType": "address",
          "name": "",
          "type": "address"
        }
      ],
      "stateMutability": "view",
      "type": "function"
    },
    {
      "inputs": [
        {
          "internalType": "address",
          "name": "initialOwner",
          "type": "address"
        },
        {
          "internalType": "address",
          "name": "_bankTokenAddress",
          "type": "address"
        }
      ],
      "name": "initialize",
      "outputs": [],
      "stateMutability": "nonpayable",
      "type": "function"
    },
    {
      "inputs": [],
      "name": "owner",
      "outputs": [
        {
          "internalType": "address",
          "name": "",
          "type": "address"
        }
      ],
      "stateMutability": "view",
      "type": "function"
    },
    {
      "inputs": [],
      "name": "proxiableUUID",
      "outputs": [
        {
          "internalType": "bytes32",
          "name": "",
          "type": "bytes32"
        }
      ],
      "stateMutability": "view",
      "type": "function"
    },
    {
      "inputs": [],
      "name": "renounceOwnership",
      "outputs": [],
      "stateMutability": "nonpayable",
      "type": "function"
    },
    {
      "inputs": [
        {
          "internalType": "address",
          "name": "newOwner",
          "type": "address"
        }
      ],
      "name": "transferOwnership",
      "outputs": [],
      "stateMutability": "nonpayable",
      "type": "function"
    },
    {
      "inputs": [
        {
          "internalType": "address",
          "name": "newImplementation",
          "type": "address"
        },
        {
          "internalType": "bytes",
          "name": "data",
          "type": "bytes"
        }
      ],
      "name": "upgradeToAndCall",
      "outputs": [],
      "stateMutability": "payable",
      "type": "function"
    },
    {
      "inputs": [],
      "name": "version",
      "outputs": [
        {
          "internalType": "string",
          "name": "",
          "type": "string"
        }
      ],
      "stateMutability": "pure",
      "type": "function"
    },
    {
      "stateMutability": "payable",
      "type": "receive"
    }
  ],
  "bytecode": "0x60a06040523060805234801561001457600080fd5b5061001d610022565b6100d4565b7ff0c57e16840df040f15088dc2f81fe391c3923bec73e23a9662efc9c229c6a00805468010000000000000000900460ff16156100725760405163f92ee8a960e01b815260040160405180910390fd5b80546001600160401b03908116146100d15780546001600160401b0319166001600160401b0390811782556040519081527fc7f505b2f371ae2175ee4913f4499e1f2633a7b5936321eed1cdaeb6115181d29060200160405180910390a15b50565b608051610b1e6100fd600039600081816104500152818161047901526105bf0152610b1e6000f3fe60806040526004361061008a5760003560e01c8063715018a611610059578063715018a6146101755780638d3ecfae1461018a5780638da5cb5b146101c2578063ad3cb1cc146101ff578063f2fde38b1461023057600080fd5b8063485cc955146100e15780634f1ef2861461010357806352d1902d1461011657806354fd4d501461013e57600080fd5b366100dc5760405162461bcd60e51b815260206004820152601860248201527f4175746f536572766963653a206e6f742070617961626c65000000000000000060448201526064015b60405180910390fd5b600080fd5b3480156100ed57600080fd5b506101016100fc36600461090e565b610250565b005b610101610111366004610957565b61039e565b34801561012257600080fd5b5061012b6103bd565b6040519081526020015b60405180910390f35b34801561014a57600080fd5b506040805180820190915260058152640312e302e360dc1b60208201525b6040516101359190610a45565b34801561018157600080fd5b506101016103da565b34801561019657600080fd5b506000546101aa906001600160a01b031681565b6040516001600160a01b039091168152602001610135565b3480156101ce57600080fd5b507f9016d09d72d40fdae2fd8ceac6b6234c7706214fd39c1cd1e609a0528c199300546001600160a01b03166101aa565b34801561020b57600080fd5b50610168604051806040016040528060058152602001640352e302e360dc1b81525081565b34801561023c57600080fd5b5061010161024b366004610a78565b6103ee565b7ff0c57e16840df040f15088dc2f81fe391c3923bec73e23a9662efc9c229c6a008054600160401b810460ff16159067ffffffffffffffff166000811580156102965750825b905060008267ffffffffffffffff1660011480156102b35750303b155b9050811580156102c1575080155b156102df5760405163f92ee8a960e01b815260040160405180910390fd5b845467ffffffffffffffff19166001178555831561030957845460ff60401b1916600160401b1785555b6103128761042c565b61031a61043d565b600080546001600160a01b0388166001600160a01b0319918216811790925560018054821683179055600280549091169091179055831561039557845460ff60401b19168555604051600181527fc7f505b2f371ae2175ee4913f4499e1f2633a7b5936321eed1cdaeb6115181d29060200160405180910390a15b50505050505050565b6103a6610445565b6103af826104ea565b6103b982826104f2565b5050565b60006103c76105b4565b50600080516020610ac983398151915290565b6103e26105fd565b6103ec6000610658565b565b6103f66105fd565b6001600160a01b03811661042057604051631e4fbdf760e01b8152600060048201526024016100d3565b61042981610658565b50565b6104346106c9565b61042981610712565b6103ec6106c9565b306001600160a01b037f00000000000000000000000000000000000000000000000000000000000000001614806104cc57507f00000000000000000000000000000000000000000000000000000000000000006001600160a01b03166104c0600080516020610ac9833981519152546001600160a01b031690565b6001600160a01b031614155b156103ec5760405163703e46dd60e11b815260040160405180910390fd5b6104296105fd565b816001600160a01b03166352d1902d6040518163ffffffff1660e01b8152600401602060405180830381865afa92505050801561054c575060408051601f3d908101601f1916820190925261054991810190610a93565b60015b61057457604051634c9c8ce360e01b81526001600160a01b03831660048201526024016100d3565b600080516020610ac983398151915281146105a557604051632a87526960e21b8152600481018290526024016100d3565b6105af838361071a565b505050565b306001600160a01b037f000000000000000000000000000000000000000000000000000000000000000016146103ec5760405163703e46dd60e11b815260040160405180910390fd5b3361062f7f9016d09d72d40fdae2fd8ceac6b6234c7706214fd39c1cd1e609a0528c199300546001600160a01b031690565b6001600160a01b0316146103ec5760405163118cdaa760e01b81523360048201526024016100d3565b7f9016d09d72d40fdae2fd8ceac6b6234c7706214fd39c1cd1e609a0528c19930080546001600160a01b031981166001600160a01b03848116918217845560405192169182907f8be0079c531659141344cd1fd0a4f28419497f9722a3daafe3b4186f6b6457e090600090a3505050565b7ff0c57e16840df040f15088dc2f81fe391c3923bec73e23a9662efc9c229c6a0054600160401b900460ff166103ec57604051631afcd79f60e31b815260040160405180910390fd5b6103f66106c9565b61072382610770565b6040516001600160a01b038316907fbc7cd75a20ee27fd9adebab32041f755214dbc6bffa90cc0225b39da2e5c2d3b90600090a2805115610768576105af82826107d5565b6103b961084b565b806001600160a01b03163b6000036107a657604051634c9c8ce360e01b81526001600160a01b03821660048201526024016100d3565b600080516020610ac983398151915280546001600160a01b0319166001600160a01b0392909216919091179055565b6060600080846001600160a01b0316846040516107f29190610aac565b600060405180830381855af49150503d806000811461082d576040519150601f19603f3d011682016040523d82523d6000602084013e610832565b606091505b509150915061084285838361086a565b95945050505050565b34156103ec5760405163b398979f60e01b815260040160405180910390fd5b60608261087f5761087a826108c9565b6108c2565b815115801561089657506001600160a01b0384163b155b156108bf57604051639996b31560e01b81526001600160a01b03851660048201526024016100d3565b50805b9392505050565b8051156108d95780518082602001fd5b60405163d6bda27560e01b815260040160405180910390fd5b80356001600160a01b038116811461090957600080fd5b919050565b6000806040838503121561092157600080fd5b61092a836108f2565b9150610938602084016108f2565b90509250929050565b634e487b7160e01b600052604160045260246000fd5b6000806040838503121561096a57600080fd5b610973836108f2565b9150602083013567ffffffffffffffff81111561098f57600080fd5b8301601f810185136109a057600080fd5b803567ffffffffffffffff8111156109ba576109ba610941565b604051601f8201601f19908116603f0116810167ffffffffffffffff811182821017156109e9576109e9610941565b604052818152828201602001871015610a0157600080fd5b816020840160208301376000602083830101528093505050509250929050565b60005b83811015610a3c578181015183820152602001610a24565b50506000910152565b6020815260008251806020840152610a64816040850160208701610a21565b601f01601f19169190910160400192915050565b600060208284031215610a8a57600080fd5b6108c2826108f2565b600060208284031215610aa557600080fd5b5051919050565b60008251610abe818460208701610a21565b919091019291505056fe360894a13ba1a3210667c828492db98dca3e2076cc3735a920a3ca505d382bbca264697066735822122028fd40bdaf3795e235ec3625f1f7ae849fc777bc6632be887a5b199c7285705a64736f6c634300081c0033",
  "linkReferences": {},
  "deployedLinkReferences": {}
}